S00C00006C6162342E73726563B5
S11300000C945A000C9477000C9477000C947700AD
S11300100C945C060C9477000C9477000C94770095
S11300200C9477000C9477000C9477000C94770070
S11300300C9477000C9477000C9477000C94770060
S11300400C9477000C9477000C9477000C94770050
S11300500C9477000C9477000C9477000C94770040
S11300600C9477000C9477000C9477000C94770030
S11300700C9477000C9477000C9477000C94770020
S11300800C9477000C9477000C9477000C94770010
S11300900C9477000C9477000C9477000C94770000
S11300A00C9477000C9477000C9477000C947700F0
S11300B00C94770011241FBECFEFD8E0DEBFCDBF74
S11300C013E0A0E0B1E0E8E3FFE102C005900D9287
S11300D0A838B107D9F723E0A8E8B3E001C01D921E
S11300E0AC3AB207E1F70E94DD060C949A0F0C9427
S11300F00000CF93DF93EA01262F482F0E946B095B
S1130100CE010E940409DF91CF9108952F923F926E
S11301104F925F926F927F928F929F92AF92BF9213
S1130120CF92DF92EF92FF920F931F93CF93DF93BF
S113013000D000D0CDB7DEB72801FA01B097FA831A
S1130140E983E0EAF0E0E81BF109CE2CD12CA6010A
S1130150440F551F440F551F440F551F4C195D097B
S11301604E175F070CF085C0E0E8F0E0E61BF109EC
S11301704E175F070CF472C07CC0E981FA81EE0F60
S1130180FF1FEE0FFF1F89819A81E80FF91FE756C1
S1130190FE4FEA0DFB1D6080E12CF12C56C0862D2C
S11301A090E00E2C02C0959587950A94E2F780FDA5
S11301B022C0812C912C43C0672D1E9D600D1124FB
S11301C09B81690FA101802F1A9D800D1124880D38
S11301D00E947900EB81FC813196FC83EB8302C0A1
S11301E01C821B828B819C818C159D052CF39FEFB7
S11301F0891A990A02C0812C912C8C149D0484F3D1
S113020021C0672D1E9D600D1124EB816E0FA2018C
S1130210802F1A9D800D1124880D0E9479008B81F6
S11302209C8101969C838B8302C01C821B82EB8180
S1130230FC81EC15FD052CF3FFEF8F1A9F0A8C143B
S11302409D049CF38FEFE81AF80A98E0E916F1048C
S11302500CF4A5CFEFEFAE1ABE0A06C01E2D19018D
S1130260762E082FA12CB12CF5E0AF16B1040CF4B6
S113027084CF0F900F900F900F90DF91CF911F912B
S11302800F91FF90EF90DF90CF90BF90AF909F9031
S11302908F907F906F905F904F903F902F90089534
S11302A0CF92DF92EF92FF920F931F93CF93DF933E
S11302B0F82EE62ED42EC22E0E946B0985B18B7FB8
S11302C085B9C0E0D0E004C0C8010E94130921969A
S11302D02F2D30E02D193109C901992324F48827E1
S11302E09927821B930B01962E2D30E02C1931098E
S11302F0A90122F444275527421B530B849F9001E4
S1130300859F300D949F300D1124C217D307E4F25A
S113031085B1846085B9DF91CF911F910F91FF90D2
S1130320EF90DF90CF9008950F931F93CF93DF93B7
S11303308C012FE74FE960E080E00E946B0985B1F2
S11303408B7F85B9C0E0D0E004C0C8010E941309C6
S11303502196C11580E5D807C4F385B1846085B9B9
S1130360DF91CF911F910F910895CF93DF93605246
S1130370405220E5FC0111922A95E9F7C0E0D0E053
S113038048C0262F30E0F901EE0FFF1FEE0FFF1FCC
S1130390E20FF31FE756FE4FEC0FFD1F2081E42F01
S11303A0F0E0DF01AA0FBB1FAA0FBB1FEA0FFB1F60
S11303B0E756FE4FEC0FFD1F5081722F7095752389
S11303C050955223A0E0B0E020C0272F30E00A2E41
S11303D002C0359527950A94E2F7FD01EE0FFF1F41
S11303E0EE0FFF1FEA0FFB1FE80FF91FEC0FFD1FB5
S11303F021702083252F30E00A2E02C035952795E1
S11304000A94E2F7217020A71196A830B105ECF206
S11304102196C530D1050CF4B4CFDF91CF91089566
S11304205F926F927F928F929F92AF92BF92CF9280
S1130430DF92EF92FF920F931F93CF93DF93982E47
S1130440F62E5A01522E632E702E812EC12CD12CE1
S113045047C02E2D30E0C29EC001C39E900DD29E97
S1130460900D1124890D911DC29FB001C39F700D81
S1130470D29F700D11246F0D711DFE01EE0FFF1F31
S1130480EE0FFF1FEC0FFD1FEA0DFB1DEC0DFD1D14
S11304902081211111C0FE01EE0FFF1FEE0FFF1F7F
S11304A0EC0FFD1FEA0DFB1DEC0DFD1D20A5222305
S11304B061F0072D182D02C0052D162D2E2D260FA7
S11304C04E2D480F41500E945001219602C0C0E0B9
S11304D0D0E0C830D1050CF4BCCF8FEFC81AD80ACD
S11304E085E0C816D1049CF3DF91CF911F910F9141
S11304F0FF90EF90DF90CF90BF90AF909F908F9040
S11305007F906F905F9008958F929F92AF92BF9269
S1130510CF92DF92EF92FF920F931F93CF93DF93CB
S1130520882E962EEA0159016801FE2C16C02196E8
S113053050E0EF2C86019501692D882D0E948600DC
S11305409F2D990F892F880F880F890F8F0D880D84
S11305500F2EF7EF8F2EF02D880E48814111E7CF33
S1130560DF91CF911F910F91FF90EF90DF90CF908B
S1130570BF90AF909F908F90089584EA8093BC00C1
S11305808091BC008823E4F7089584E98093BC003B
S113059008958093BB0084E88093BC008091BC00E4
S11305A08823E4F7089584E88093BC008091BC001C
S11305B08823E4F78091BB000895E8EBF0E0208104
S11305C081E090E002C0880F991F2A95E2F790819C
S11305D0892B8083A9EBB0E08C9182608C9388E4B2
S11305E0808384E08093BC0008950E94BD0280ED66
S11305F00E94C9028AE60E94C90280E00E94C902E0
S11306000E94BD0280ED0E94C9028BE60E94C902CD
S113061080E00E94C9020E94C50208950E94BD02A2
S113062080ED0E94C9028DE30E94C9020E94BD02AE
S113063081ED0E94C9020E94D30280938D030E941F
S1130640BD0280ED0E94C9028EE30E94C9020E948D
S1130650BD0281ED0E94C9020E94D30280938C03E3
S11306600E94C5020895F8948AB180628AB985B55A
S1130670816085BD84B5816084BD84B5826084BD9C
S113068085B5886085BD87E287BD87B590E06AE05F
S113069070E00E94580B68BD84B5806284BD789474
S11306A00895E4E6F0E080818E7F8083ACE7B0E0DB
S11306B08C9180648C938C9180688C93EAE7F0E051
S11306C08081816080838081826080838081846076
S11306D080838C918E7F8C938C918D7F8C938C9165
S11306E08B7F8C938C91877F8C93808180628083B5
S11306F0ABE7B0E08C918E7F8C938C918D7F8C9343
S11307008C918B7F8C93AEE7B0E08C9181608C935D
S11307108081806880838081806480830895F894D8
S113072084B1806284B987B18B7F87B9E8E6F0E051
S1130730808182608083ECE6F0E080818460808345
S113074088B1846088B9789408952FEF89E698E198
S1130750215080409040E1F700C000000E945B09F6
S113076080E090E00E94940187E690E00E9499095D
S11307702FEF89E698E1215080409040E1F700C0D6
S113078000000E9451030E9433030E948F032FEF45
S113079089E698E1215080409040E1F700C00000D4
S11307A00E94DD022FEF80E792E0215080409040CC
S11307B0E1F700C000000E94F5022FEF89E698E1FE
S11307C0215080409040E1F700C000000895BF929E
S11307D0CF92DF92EF92FF920F931F93CF93DF9309
S11307E0E0911001F0911101E436F10528F59F0123
S11307F0ADECBCEC0E946C0BAC015695479556953C
S11308004795569547950F2EF0E3CF2EF02DC40E45
S1130810CA01880F991F440F551F440F551F440FD9
S1130820551F480F591FCF01841B950B0F2EF0E362
S1130830FF2EF02DF80E2AC0EF01D695C795D69558
S1130840C7959E01ABE7B4E10E946C0BAC015695D1
S113085047950F2EF0E3CF2EF02DC40E24E6249FEF
S1130860C001259F900D11249F01281B390BADEC6D
S1130870BCEC0E946C0B96958795969587959695FA
S113088087950F2EF0E3FF2EF02DF80EC091120184
S1130890D0911301C436D10528F59E01ADECBCEC12
S11308A00E946C0BAC015695479556954795569505
S11308B047950F2EF0E3BF2EF02DB40ECA01880F1A
S11308C0991F440F551F440F551F440F551F480FC0
S11308D0591FCE01841B950B0F2EF0E3DF2EF02D54
S11308E0D80E2AC08E01169507951695079598017E
S11308F0ABE7B4E10E946C0BAC01569547950F2E03
S1130900F0E3BF2EF02DB40E24E6249FC001259FF2
S1130910900D11249E01281B390BADECBCEC0E94F8
S11309206C0B9695879596958795969587950F2E3A
S1130930F0E3DF2EF02DD80EEF3F8FEFF80731F400
S11309406894FF24F5F86894CC24C5F8E536F105DD
S1130950D8F0C436D105C0F44EE260E280918A0337
S113096090918B030E94B50140918A0350918B03AF
S11309706894EE24E1F80FEF1FEF20E030E063E12C
S113098087E30E9410021DC0E436F105D0F4C4369A
S1130990D105B8F040E26EE280918A0390918B0316
S11309A00E94B50140918A0350918B036894EE2410
S11309B0E1F80FEF1FEF20E030E063E187E30E94EE
S11309C010024B2D6C2D80918A0390918B030E9411
S11309D0B50140918A0350918B030F2EF3E0EF2E63
S11309E0F02D0FEF1FEF20E030E06BE088E20E9473
S11309F010024D2D6F2D80918A0390918B030E94DC
S1130A00B50140918A0350918B0320E030E06BE004
S1130A1080E40E941002809112019091130190933E
S1130A20110180931001DF91CF911F910F91FF90DD
S1130A30EF90DF90CF90BF900895EF92FF920F93C5
S1130A401F93CF93DF9380910A0190910B01CC9770
S1130A5069F410920B0110920A0180910E01909199
S1130A600F01019690930F0180930E0140910E01A6
S1130A7050910F019A01ABEABAEA0E946C0BFC0197
S1130A80F295E295EF70EF27FF70EF27CF01880F03
S1130A90991FE80FF91FEE0FFF1FEE0FFF1FEE0F58
S1130AA0FF1FCA018E1B9F0BFC0190930F018093C3
S1130AB00E0100910C0110910D019801ADECBCECFC
S1130AC00E946C0BAC0156954795569547955695E3
S1130AD047950F2EF0E3EF2EF02DE40ECA01880F98
S1130AE0991F440F551F440F551F440F551F480F9E
S1130AF0591FC801841B950B0F2EF0E3FF2EF02D18
S1130B00F80E9F010E946C0BEC01D695C795D69503
S1130B10C795D695C7954C2F405DCE01880F991F78
S1130B20CC0FDD1FCC0FDD1FCC0FDD1FC80FD91F6D
S1130B30EC1BFD0BC0E3CE0F0F3F1F4F31F4689445
S1130B40FF24F5F86894EE24E5F86E2D80918A036D
S1130B5090918B030E94B50140918A0350918B03BD
S1130B606894EE24E1F80FEF1FEF20E030E069E62F
S1130B7088E00E9410024C2F6F2D80918A0390917F
S1130B808B030E94B50140918A0350918B0320E0AE
S1130B9030E069E684E10E9410020091080110919E
S1130BA009019801ADECBCEC0E946C0BAC015695AC
S1130BB0479556954795569547950F2EF0E3EF2E9A
S1130BC0F02DE40ECA01880F991F440F551F440FDE
S1130BD0551F440F551F480F591FC801841B950BFF
S1130BE00F2EF0E3FF2EF02DF80EE0910A01F091A4
S1130BF00B019F010E946C0BEC01D695C795D6950D
S1130C00C795D695C7954C2F405DCE01880F991F87
S1130C10CC0FDD1FCC0FDD1FCC0FDD1FC80FD91F7C
S1130C20EC1BFD0BC0E3CE0F0F3F1F4F31F4689454
S1130C30FF24F5F86894EE24E5F86E2D80918A037C
S1130C4090918B030E94B50140918A0350918B03CC
S1130C506894EE24E1F80FEF1FEF20E030E069E63E
S1130C608AE20E9410024C2F6F2D80918A0390918A
S1130C708B030E94B50140918A0350918B0320E0BD
S1130C8030E069E686E30E94100280910E019091A3
S1130C900F0190930D0180930C0180910A019091B2
S1130CA00B019093090180930801DF91CF911F916B
S1130CB00F91FF90EF9008951F920F920FB60F922D
S1130CC01124EF920F931F932F933F934F935F93AE
S1130CD06F937F938F939F93AF93BF93EF93FF9300
S1130CE095B180E2892785B9329B2AC04CE46FE430
S1130CF080918A0390918B030E94B50140918A03ED
S1130D0050918B036894EE24E1F80FEF1FEF20E07D
S1130D1030E069E681E80E9410024FE46BE48091C0
S1130D208A0390918B030E94B50140918A035091EC
S1130D308B0320E030E069E68DE80E94100229C0B0
S1130D404FE46CE480918A0390918B030E94B50177
S1130D5040918A0350918B036894EE24E1F80FEFDD
S1130D601FEF20E030E069E681E80E9410024BE4C6
S1130D706FE480918A0390918B030E94B5014091A6
S1130D808A0350918B0320E030E069E68DE80E94ED
S1130D901002FF91EF91BF91AF919F918F917F913D
S1130DA06F915F914F913F912F911F910F91EF9010
S1130DB00F900FBE0F901F901895CF93DF9300D024
S1130DC01F92CDB7DEB70E94A5030FEF1FEF2FE7E9
S1130DD04EE961E081E00E94500100E010E024E26D
S1130DE044E966E08BE00E9450010FEF1FEF23E21D
S1130DF043E967E08CE00E94500100E010E02AE73C
S1130E0046E466E686E00E9450010FEF1FEF29E7F3
S1130E1045E467E687E00E94500100E010E02AE71D
S1130E2049E966E689E50E9450010FEF1FEF29E7C3
S1130E3048E967E68AE50E9450018EE290E09A83D1
S1130E4089831B826894EE24E1F8F12C20E030E0E1
S1130E50AE014F5F5F4F63E187E30E94840286E047
S1130E60E9E7F3E0DE01119601900D928A95E1F72E
S1130E7020E030E0AE014F5F5F4F63E185E50E9403
S1130E80840220E030E04AE350E069E670E080E26A
S1130E9090E00E94860080E590E00E948F0B909382
S1130EA08B0380938A034EE260E20E94B501409175
S1130EB08A0350918B0320E030E063E187E30E94D2
S1130EC0100242E460E280918A0390918B030E94B5
S1130ED0B50140918A0350918B0320E030E069E62C
S1130EE08BE50E94100241E460E280918A039091B4
S1130EF08B030E94B50140918A0350918B0320E03B
S1130F0030E069E687E60E94100244E560E28091E1
S1130F108A0390918B030E94B50140918A035091FA
S1130F208B0320E030E069E683E70E941002329BE5
S1130F3025C04CE460E280918A0390918B030E9467
S1130F40B50140918A0350918B0320E030E069E6BB
S1130F5081E80E9410024FE460E280918A0390913C
S1130F608B030E94B50140918A0350918B0320E0CA
S1130F7030E069E68DE80E94100229C04FE460E287
S1130F8080918A0390918B030E94B50140918A035A
S1130F9050918B036894EE24E1F80FEF1FEF20E0EB
S1130FA030E069E681E80E9410024BE460E280913F
S1130FB08A0390918B030E94B50140918A0350915A
S1130FC08B0320E030E069E68DE80E94100287B1CF
S1130FD08F7E87B90E940E038FE19EE40197F1F79B
S1130FE000C0000080918D03813870F080918D03E2
S1130FF08A3F50F480918E038A3078F480918E0376
S11310008E5F80938E0309C080918E03882329F01C
S113101080918E03815080938E038091060190917C
S113102007010197A9F480918E03853040F084B5BF
S1131030806184BD84B5806284BD18BC2BC084B536
S11310408F7E84BD84B58F7D84BD87B588BD22C065
S113105080918E03873040F084B5806184BD84B56F
S1131060806284BD18BC16C084B5806184BD84B51B
S1131070806284BD87B590E09C01220F331F220F4C
S1131080331F220F331F820F931F6AE070E00E9408
S1131090580B68BD8091780090917900893E934007
S11310A028F4109207011092060106C081E090E036
S11310B0909307018093060180918D031F928F9373
S11310C08FE793E09F938F938FE893E09F938F93A1
S11310D00E94B00C8FE893E00E94AF0980918D03C9
S11310E00F900F900F900F900F900F90893728F06A
S11310F080918D03819580938D0360918D0370E0C1
S113110080E090E00E945D0A20E030E040E752E495
S11311100E94BC0920E030E040EB51E40E94EB0A5D
S11311200E942E0A6B017C019B01AFE7B5EA0E9485
S11311306C0B0024880F991F001C880F991F001C3A
S1131140892F902D43E6489F9001499F300D11242B
S1131150C601821B930B909313018093120120917B
S11311608803309189032F5F3F4F30938903209385
S11311708803243F314099F420910A0130910B01F6
S11311802F5F3F4F30930B0120930A0101969093F8
S113119013018093120110928903109288030E9414
S11311A0E7030E941D0516CF80E58CBD81E08DBD4F
S11311B0089584B18F6284B98AB180648AB984B590
S11311C0836884BD85B5846085BD8FE787BD83ED65
S11311D090E30197F1F700C0000085B1826085B902
S11311E0089507C089EF90E00197F1F700C000006F
S11311F0C9019C0121503109892BA1F708958EBDA5
S11312000DB407FEFDCF089525B12B7F25B99EBDF2
S11312100DB407FEFDCF8EBD0DB407FEFDCF85B125
S1131220846085B908959EBD0DB407FEFDCF8EBDC3
S11312300DB407FEFDCF0895FF920F931F93CF9334
S1131240DF93EC0185B18B7F85B927C085B18E7F93
S113125085B988810E94FF08FE013296898195B183
S1131260916095B908C08F010F5F1F4F80810E9464
S1131270FF088C2FF801CFEFC80F8111F4CFEF01D5
S113128021968081882341F08F3F11F090E002C0C5
S113129084EF91E00E94F1086F2DFF24FA94F60E7A
S11312A06111D4CF85B1846085B9DF91CF911F914D
S11312B00F91FF9008950E94D9080E94D40881EEEE
S11312C094E00197F1F700C0000066E184E191E049
S11312D00E941C090895CF93DF93CDB7DEB76197C1
S11312E00FB6F894DEBF0FBECDBF9AE2998394E0A7
S11312F09A831B828C831D824E831F828BE2888794
S113130099871A866B871C862D871E868CE28F87A9
S1131310188A85E0898B63E0CE0101960E941C093E
S113132061960FB6F894DEBF0FBECDBFDF91CF91AB
S113133008959093C5008093C40088E18093C10010
S1131340E2ECF0E086E08083808188608083089509
S11313509091C00095FFFCCF8093C6000895CF9371
S1131360DF93EC0103C00E94A809219688818111B2
S1131370FACFDF91CF9108950E94D0090C94B10A5D
S11313800E94AA0A58F00E94A30A40F029F45F3F81
S113139029F00C949A0A51110C94E50A0C94A00AB1
S11313A00E94C20A68F39923B1F3552391F3951B64
S11313B0550BBB27AA2762177307840738F09F5F72
S11313C05F4F220F331F441FAA1FA9F335D00E2EDF
S11313D03AF0E0E832D091505040E695001CCAF74C
S11313E02BD0FE2F29D0660F771F881FBB1F26170F
S11313F037074807AB07B0E809F0BB0B802DBF01E6
S1131400FF2793585F4F3AF09E3F510578F00C94B4
S11314109A0A0C94E50A5F3FE4F3983ED4F3869568
S113142077956795B795F7959F5FC9F7880F911DD5
S11314309695879597F90895E1E0660F771F881FC1
S1131440BB1F621773078407BA0720F0621B730B74
S1131450840BBA0BEE1F88F7E09508950E94CA0A20
S113146088F09F5798F0B92F9927B751B0F0E1F061
S1131470660F771F881F991F1AF0BA95C9F714C011
S1131480B13091F00E94E40AB1E008950C94E40AAA
S1131490672F782F8827B85F39F0B93FCCF386954A
S11314A077956795B395D9F73EF4909580957095A7
S11314B061957F4F8F4F9F4F0895E89409C097FB24
S11314C03EF490958095709561957F4F8F4F9F4F17
S11314D09923A9F0F92F96E9BB279395F69587955B
S11314E077956795B795F111F8CFFAF4BB0F11F41E
S11314F060FF1BC06F5F7F4F8F4F9F4F16C08823C5
S113150011F096E911C0772321F09EE8872F762FFA
S113151005C0662371F096E8862F70E060E02AF03B
S11315209A95660F771F881FDAF7880F9695879527
S113153097F9089597F99F6780E870E060E008954F
S11315409FEF80EC089500240A94161617061806D7
S11315500906089500240A941216130614060506B3
S11315600895092E0394000C11F4882352F0BB0F44
S113157040F4BF2B11F460FF04C06F5F7F4F8F4FA7
S11315809F4F089557FD9058440F551F59F05F3FE2
S113159071F04795880F97FB991F61F09F3F79F091
S11315A087950895121613061406551FF2CF469513
S11315B0F1DF08C0161617061806991FF1CF869595
S11315C07105610508940895E894BB276627772779
S11315D0CB0197F908950E94FE0A0C94B10A0E9467
S11315E0A30A38F00E94AA0A20F0952311F00C9463
S11315F09A0A0C94A00A11240C94E50A0E94C20AC7
S113160070F3959FC1F3950F50E0551F629FF00151
S1131610729FBB27F00DB11D639FAA27F00DB11D6A
S1131620AA1F649F6627B00DA11D661F829F2227F3
S1131630B00DA11D621F739FB00DA11D621F839F7A
S1131640A00D611D221F749F3327A00D611D231F50
S1131650849F600D211D822F762F6A2F11249F579E
S113166050409AF0F1F088234AF0EE0FFF1FBB1FA1
S1131670661F771F881F91505040A9F79E3F510560
S113168080F00C949A0A0C94E50A5F3FE4F3983EC8
S1131690D4F3869577956795B795F795E7959F5F0A
S11316A0C1F7FE2B880F911D9695879597F908959C
S11316B097FB072E16F4009407D077FD09D00E94FB
S11316C07B0B07FC05D03EF4909581959F4F0895C0
S11316D0709561957F4F0895A29FB001B39FC0019B
S11316E0A39F700D811D1124911DB29F700D811D4A
S11316F01124911D0895AA1BBB1B51E107C0AA1F09
S1131700BB1FA617B70710F0A61BB70B881F991F9E
S11317105A95A9F780959095BC01CD0108950F9332
S11317201F93CF93DF938230910510F482E090E011
S1131730E091AA03F091AB0320E030E0A0E0B0E038
S1131740309719F14081518102811381481759075B
S1131750C8F08417950769F4109731F012960C932A
S1131760129713961C9327C00093AA031093AB03FC
S113177022C02115310519F04217530718F49A01B4
S1131780BD01EF01DF01F801DBCF21153105F9F0CF
S1131790281B390B2430310580F48A819B81611523
S11317A0710521F0FB019383828304C09093AB0302
S11317B08093AA03FE01329644C0FE01E20FF31F98
S11317C08193919322503109398328833AC020911F
S11317D0A8033091A903232B41F4209102013091F5
S11317E003013093A9032093A803209100013091B1
S11317F001012115310541F42DB73EB74091040193
S113180050910501241B350BE091A803F091A90325
S1131810E217F307A0F42E1B3F0B2817390778F0C3
S1131820AC014E5F5F4F2417350748F04E0F5F1F22
S11318305093A9034093A8038193919302C0E0E0DD
S1131840F0E0CF01DF91CF911F910F910895CF93D5
S1131850DF93009709F481C0FC013297138212824E
S1131860A091AA03B091AB03109781F42081318138
S1131870820F931F2091A8033091A90328173907D9
S113188051F5F093A903E093A80367C0ED0120E0AC
S113189030E0CE17DF0740F44A815B819E01411599
S11318A05105F1F0EA01F5CFD383C2834081518120
S11318B0840F951FC817D90759F488819981840F1B
S11318C0951F0296918380838A819B81938382836F
S11318D02115310529F4F093AB03E093AA033DC02D
S11318E0E901FB83EA8349915991C40FD51FEC1791
S11318F0FD0761F480819181840F951F0296E901AF
S113190099838883828193819B838A83E0E0F0E0DA
S113191012968D919C911397009719F0FD01DC01AB
S1131920F7CF8D919C9111979D012E5F3F4F820FB0
S1131930931F2091A8033091A9032817390769F44C
S1131940309729F41092AB031092AA0302C01382B9
S11319501282B093A903A093A803DF91CF910895B5
S1131960AEE0B0E0E6EBFCE00C94710F0D891E894B
S113197086E08C831A8309838FEF9FE79E838D8390
S1131980AE01475E5F4F6F89788DCE0101960E944C
S1131990D20CEF81F885E00FF11F10822E96E4E05F
S11319A00C948D0FABE0B0E0E8EDFCE00C94630F19
S11319B06C017B018A01FC0117821682838181FFFD
S11319C0CCC1CE0101963C01F6019381F70193FD50
S11319D0859193FF81917F01882309F4BAC18532EF
S11319E039F493FD859193FF81917F01853229F428
S11319F0B60190E00E94C90EE7CF912C212C312C26
S1131A00FFE1F315D8F08B3279F038F4803279F0B5
S1131A108332A1F4232D20611DC08D3261F0803307
S1131A2069F4232D216016C0832D8260382EE32DA6
S1131A30E4603E2E2AC0F32DF8601DC037FC2DC093
S1131A4020ED280F2A3040F08E32B9F436FC81C1E3
S1131A50232D2064322E19C036FE06C08AE0989EDB
S1131A60200D1124922E11C0EAE02E9E200D112487
S1131A70222EF32DF0623F2E08C08C3621F4832DE4
S1131A808068382E02C0883641F4F70193FD8591B1
S1131A9093FF81917F018111B3CF982F9F7D95543E
S1131AA0933028F40C5F1F4F9FE399830DC0833656
S1131AB031F0833771F0833509F059C021C0F80142
S1131AC0808189830E5F1F4F88248394912C530156
S1131AD013C02801F2E04F0E511CF801A080B18020
S1131AE036FE03C0692D70E002C06FEF7FEFC501C1
S1131AF00E94BE0E4C018201F32DFF773F2E16C0CB
S1131B00280122E0420E511CF801A080B18036FE6B
S1131B1003C0692D70E002C06FEF7FEFC5010E9422
S1131B20B30E4C01F32DF0683F2E820133FC1BC031
S1131B30822D90E088169906B0F4B60180E290E018
S1131B400E94C90E2A94F4CFF50137FC859137FE23
S1131B5081915F01B60190E00E94C90E21102A9480
S1131B6021E0821A91088114910471F7E8C0843647
S1131B7011F0893641F5F80137FE07C060817181A3
S1131B80828193810C5F1F4F08C060817181072E91
S1131B90000C880B990B0E5F1F4FF32DFF763F2E21
S1131BA097FF09C090958095709561957F4F8F4FF1
S1131BB09F4FF0683F2E2AE030E0A3010E94050FFA
S1131BC0882E861845C0853731F4232D2F7EB22EFA
S1131BD02AE030E025C0932D997FB92E8F36C1F0CD
S1131BE018F4883579F0B5C0803719F0883721F0BA
S1131BF0B0C0E92FE061BE2EB4FE0DC0FB2DF46031
S1131C00BF2E09C034FE0AC0292F2660B22E06C09A
S1131C1028E030E005C020E130E002C020E132E0FD
S1131C20F801B7FE07C060817181828193810C5FE6
S1131C301F4F06C06081718180E090E00E5F1F4FEE
S1131C40A3010E94050F882E8618FB2DFF773F2ED7
S1131C5036FE0DC0232D2E7FA22E891458F434FE97
S1131C600BC032FC09C0832D8E7EA82E05C0B82C73
S1131C70A32C03C0B82C01C0B92CA4FE0FC0FE01D4
S1131C80E80DF11D8081803321F49A2D997EA92ECF
S1131C9009C0A2FE06C0B394B39404C08A2D86780A
S1131CA009F0B394A3FC11C0A0FE06C0B21488F4DA
S1131CB0280C922C9B180EC0B21460F4B60180E27A
S1131CC090E00E94C90EB394F7CFB21418F42B1805
S1131CD002C0982C212CA4FE10C0B60180E390E031
S1131CE00E94C90EA2FE17C0A1FC03C088E790E0C1
S1131CF002C088E590E0B6010CC08A2D867859F0C0
S1131D00A1FE02C08BE201C080E2A7FC8DE2B60115
S1131D1090E00E94C90E891438F4B60180E390E083
S1131D200E94C90E9A94F7CF8A94F301E80DF11D2D
S1131D308081B60190E00E94C90E8110F5CF222067
S1131D4009F442CEB60180E290E00E94C90E2A94C2
S1131D50F6CFF6018681978102C08FEF9FEF2B9615
S1131D60E2E10C947F0FFC0105906150704001107A
S1131D70D8F7809590958E0F9F1F0895FC016150B0
S1131D80704001900110D8F7809590958E0F9F1F99
S1131D9008950F931F93CF93DF93FB01238121FDBC
S1131DA003C08FEF9FEF2CC022FF16C046815781DE
S1131DB0248135814217530744F4A081B1819D01E8
S1131DC02F5F3F4F318320838C93268137812F5F90
S1131DD03F4F3783268314C08B01EC01FB01008441
S1131DE0F185E02D0995892BE1F6D80116968D91A0
S1131DF09C911797019617969C938E931697CE01F4
S1131E00DF91CF911F910F910895FA01AA272830ED
S1131E1051F1203181F1E8946F936E7F6E5F7F4FB3
S1131E208F4F9F4FAF4FB1E03ED0B4E03CD0670F2F
S1131E30781F891F9A1FA11D680F791F8A1F911D82
S1131E40A11D6A0F711D811D911DA11D20D009F4D2
S1131E5068943F912AE0269F11243019305D319314
S1131E60DEF6CF010895462F4770405D4193B3E0FD
S1131E700FD0C9F7F6CF462F4F70405D4A3318F0A4
S1131E80495D31FD4052419302D0A9F7EACFB4E055
S1131E90A6959795879577956795BA95C9F700970D
S1131EA06105710508959B01AC010A2E06945795AE
S1131EB0479537952795BA95C9F7620F731F841F05
S1131EC0951FA01D08952F923F924F925F926F929B
S1131ED07F928F929F92AF92BF92CF92DF92EF92B6
S1131EE0FF920F931F93CF93DF93CDB7DEB7CA1B37
S1131EF0DB0B0FB6F894DEBF0FBECDBF09942A8862
S1131F00398848885F846E847D848C849B84AA8409
S1131F10B984C884DF80EE80FD800C811B81AA8196
S1131F20B981CE0FD11D0FB6F894DEBF0FBECDBF61
S10B1F30ED010895F894FFCFC0
S1131F380000AC0320000100FFFF1E00FFFF0F009C
S1131F48FFFF50000100961100FFB103012C2D0082
S1131F58B203012C2D00B306012C2D012C2D00B445
S1131F68010700C0030A028405C101C505C2020AAB
S1131F780005C3028A2A05C4028AEE05C5010E00BB
S1131F882000003601C8003A0105002A04000000B8
S1131F987F002B040000009F00E010021C0712378A
S1131FA832292D29252B390001031000E110031DC6
S1131FB807062E2C292D2E2E373F00000210001361
S1131FC8000A2900643601600A00000000000000CD
S1131FD85F00000007000700147F147F14242A7F81
S1131FE82A12231308646236495522500005030057
S1131FF800001C2241000041221C0014083E081461
S113200808083E08080050300000080808080800BE
S11320186060000020100804023E5149453E004219
S11320287F400042615149462141454B3118141201
S11320387F1027454545393C4A494930017109050E
S1132048033649494936064949291E0036360000EF
S11320580056360000081422410014141414140005
S1132068412214080201510906324979413E7E1180
S113207811117E7F494949363E414141227F414100
S1132088221C7F494949417F090909013E414949BF
S11320987A7F0808087F00417F41002040413F01C2
S11320A87F081422417F404040407F020C027F7F1A
S11320B80408107F3E4141413E7F090909063E411B
S11320C851215E7F09192946464949493101017F51
S11320D801013F4040403F1F2040201F3F403840FF
S11320E83F6314081463070870080761514945439E
S11320F8007F41410002040810200041417F000490
S113210802010204404040404000010204002054FF
S11321185454787F48444438384444442038444428
S1132128487F3854545418087E0901020C525252FC
S11321383E7F0804047800447D40002040443D006C
S11321487F1028440000417F40007C041804787CF8
S11321580804047838444444387C141414080814D3
S113216814187C7C080404084854545420043F443C
S113217840203C4040207C1C2040201C3C403040F7
S11321883C44281028440C5050503C4464544C445B
S1132198000836410000007F0000004136080010A6
S11321A80808100800060909066D70682F730041B5
S10B21B843433A2025750A0097
S9030000FC
