S00C00006C6162342E73726563B5
S11300000C945A000C9477000C9477000C947700AD
S11300100C94F9040C9477000C9477000C947700FA
S11300200C9477000C9477000C9477000C94770070
S11300300C9477000C9477000C9477000C94770060
S11300400C9477000C9477000C9477000C94770050
S11300500C9477000C9477000C9477000C94770040
S11300600C9477000C9477000C9477000C94770030
S11300700C9477000C9477000C9477000C94770020
S11300800C9477000C9477000C9477000C94770010
S11300900C9477000C9477000C9477000C94770000
S11300A00C9477000C9477000C9477000C947700F0
S11300B00C94770011241FBECFEFD8E0DEBFCDBF74
S11300C013E0A0E0B1E0EEE5FBE102C005900D9283
S11300D0A838B107D9F723E0A8E8B3E001C01D921E
S11300E0AE3AB207E1F70E9464050C94AD0D0C948E
S11300F00000CF93DF93EA01262F482F0E94870741
S1130100CE01DF91CF910C9412072F923F924F9220
S11301105F926F927F928F929F92AF92BF92CF9293
S1130120DF92EF92FF920F931F93CF93DF93CDB79C
S1130130DEB727970FB6F894DEBF0FBECDBFCE2C27
S1130140D12C97E0E99ED0011124E0EAF0E0E81B0D
S1130150F109AE17BF070CF071C0E0E8F0E0E61B50
S1130160F109AE17BF070CF069C02E2C28013D839E
S11301702C836B8395E0949F9001959F300D1124FF
S11301803A832983782E1F821E82E981FA818E8127
S11301909F81E80FF91FE950FF4FA0806B80E12C8D
S11301A0F12CB12CC5010E2C02C0959587950A94AB
S11301B0E2F7812C912C80FF2EC08C149D044CF00E
S11301C02FEFE21AF20A620C38E0E316F10451F759
S11301D02AC0372C380C00E010E0662D600F4C81EB
S11301E05D81832D0E9479000F5F1F4F0C151D0543
S11301F0A4F39FEF891A990AE0CF662D600FA2013C
S1130200832D0E9479000F5F1F4F0C151D05ACF361
S11302108FEF881A980A8C149D0494F6372C380CA6
S113022000E010E0EACF2E813F812F5F3F4F3F83F4
S11302302E83720C2530310509F0A7CF27960FB60F
S1130240F894DEBF0FBECDBFDF91CF911F910F9108
S1130250FF90EF90DF90CF90BF90AF909F908F90E2
S11302607F906F905F904F903F902F900895EF9202
S1130270FF920F931F93CF93DF93C82FD62FE42EB3
S1130280F22E0E9487072A988C2F90E08E199109EC
S113029097FF03C091958195910901966D2F70E0A8
S11302A06F19710977FF03C0719561957109869F74
S11302B07001879FF00C969FF00C1124C0E0D0E0F1
S11302C0CE15DF0529F0C8010E941D072196F8CF3D
S11302D02A9ADF91CF911F910F91FF90EF9008958B
S11302E00F931F93CF93DF938C012FE74FE960E0C7
S11302F080E00E9487072A98C0E0D0E5C8010E94E8
S11303001D072197D9F72A9ADF91CF911F910F9159
S11303100895CF92DF92EF92FF920F931F93CF93A2
S1130320DF937C016052405280E5F70111928A9577
S1130330E9F7F5E06F9FB001112485E0489FA00123
S1130340112420E030E0F901E60FF71FE956FE4FD3
S11303509081FA01E20FF31FE956FE4FE081C92FA5
S1130360C095CE23E0959E238701020F131FA0E0C2
S1130370B0E0D0E0C92ED12CCE010A2E02C0959552
S113038087950A94E2F78170F8018083C6010A2EEA
S113039002C0959587950A94E2F7817080A711961B
S11303A00B5F1F4FA830B10539F72F5F3F4F253042
S11303B0310549F6DF91CF911F910F91FF90EF9096
S11303C0DF90CF9008952F923F924F925F926F9259
S11303D07F928F929F92AF92BF92CF92DF92EF92D1
S11303E0FF920F931F93CF93DF9300D000D0CDB72C
S11303F0DEB7762E4A01622E532E402E312EF82E71
S1130400C12CD12C8FEF8E0D8A83FA81FF0DF983D5
S1130410C4018C0D9D1D9C838B83672D88E0A82EC1
S1130420B12CEB81FC8180812E2C260E811106C01B
S113043080A5882351F0042D132D02C0062D152DFF
S1130440222D49818F2D0E943701F1E0AF1AB108A6
S11304508B819C8105969C838B83622DA114B104AE
S113046001F79FEFC91AD90AFE0CE5E0CE16D104B4
S113047061F60F900F900F900F90DF91CF911F9125
S11304800F91FF90EF90DF90CF90BF90AF909F902F
S11304908F907F906F905F904F903F902F90089532
S11304A07F928F929F92AF92BF92CF92DF92EF9200
S11304B0FF920F931F93CF93DF93D82F762E69016A
S11304C05801FE2CCBE0EC9EC02D1124C9504A01EA
S11304D0F40141914F01442351F050E0EF2C850188
S11304E09601672D8D2F0E948500DC0FF1CFDF91DF
S11304F0CF911F910F91FF90EF90DF90CF90BF901D
S1130500AF909F908F907F9008958093BB0084E874
S11305108093BC008091BC0087FFFCCF089584E8E1
S11305208093BC008091BC0087FFFCCF8091BB000E
S11305300895E8EBF0E03081208181E090E001C093
S1130540880F3A95EAF7822B8083A9EBB0E08C916F
S113055082608C9388E4808384E08093BC00089557
S113056084EA8093BC008091BC0087FFFCCF08958F
S11305700E94B00280ED0E9485028DE30E948502F4
S11305800E94B00281ED0E9485020E948F02809336
S11305908F030E94B00280ED0E9485028EE30E94C8
S11305A085020E94B00281ED0E9485020E948F02A2
S11305B080938E0384E98093BC0008950E94B00266
S11305C080ED0E9485028AE60E94850280E00E94F6
S11305D085020E94B00280ED0E9485028BE60E9493
S11305E0850280E00E94850284E98093BC0008951E
S11305F0F894559A85B5816085BD84B5816084BDC4
S113060084B5826084BD85B5886085BD87E287BD79
S113061087B590E06AE070E00E94870968BD84B500
S1130620806284BD78940895E4E6F0E080818E7F52
S11306308083ACE7B0E08C9180648C938C9180686B
S11306408C93EAE7F0E0808181608083808182601E
S113065080838081846080838C918E7F8C938C9145
S11306608D7F8C938C918B7F8C938C91877F8C93D3
S1130670808180628083ABE7B0E08C918E7F8C9325
S11306808C918D7F8C938C918B7F8C93AEE7B0E0B3
S11306908C9181608C938081806880838081806468
S11306A080830895F894259A3A98E8E6F0E08081EA
S11306B082608083ECE6F0E0808184608083429AEB
S11306C0789408950E94650780E090E00E9470018C
S11306D087E690E00E94B5070E9414030E94F80286
S11306E00E9452032FEF89E698E121508040904008
S11306F0E1F700C000000E9499020E94DE022FEF81
S113070087EA91E6215080409040E1F700C0000064
S11307100895DF92EF92FF920F931F93CF93DF938D
S113072020910E0130910F01C9012436310548F49E
S11307306AE070E00E947309C0E3C60FD0E3D80FEB
S11307400CC064E670E00E947309C0E3C60F6AE05F
S113075070E00E947309D0E3D60FE0911001F0918C
S1130760110100918C0310918D03CF01E436F10542
S113077088F46AE070E00E94730970E3D72ED60E05
S1130780A0E3FA2EF80E2F3F8FEF3807C1F4D0E222
S1130790C0E218C064E670E00E94730940E3D42EFE
S11307A0D60E6AE070E00E94730950E3F52EF60E4F
S11307B02F3F8FEF380749F4D0E2C0E222C025363C
S11307C0310530F04EE260E20BC025363105C8F445
S11307D024363105B0F4E436F10598F040E26EE2D7
S11307E0C8010E94890140918C0350918D0392E0CD
S11307F0E92E0FEF1FEF20E038EF63E187E30E945B
S1130800E3014D2D6C2F80918C0390918D030E94F8
S1130810890140918C0350918D0383E0E82E0FEF02
S11308201FEF20E038EF6BE088E20E94E3014F2DD8
S11308306D2F80918C0390918D030E9489014091CA
S11308408C0350918D0320E038EF6BE080E40E942C
S1130850E301809110019091110190930F01809315
S11308600E01DF91CF911F910F91FF90EF90DF90D8
S11308700895EF920F931F93CF93DF9380918A0390
S113088090918B03CC9769F410928B0310928A0396
S113089080910C0190910D01019690930D0180932C
S11308A00C0180910C0190910D0168E170E00E94AF
S11308B0730990930D0180930C01E0910A01F0916A
S11308C00B012AE030E0B9010E94730940E3460FAE
S11308D0D0E3D80FEF3F8FEFF80741F0CF01B90114
S11308E00E947309605DC0E3C80F02C0C0E260E209
S11308F080918C0390918D030E94890140918C0317
S113090050918D0392E0E92E0FEF1FEF20E038EFB6
S113091069E688E00E94E3014D2F6C2F80918C03DF
S113092090918D030E94890140918C0350918D0315
S113093020E038EF69E684E10E94E301E0910801D8
S1130940F091090180918A0390918B032AE030E0B1
S1130950B9010E94730940E3460FD0E3D80FEF3F7B
S11309608FEFF80741F0CF01B9010E947309605D70
S1130970C0E3C80F02C0C0E260E280918C03909192
S11309808D030E94890140918C0350918D0382E074
S1130990E82E0FEF1FEF20E038EF69E68AE20E94AD
S11309A0E3014D2F6C2F80918C0390918D030E9455
S11309B0890140918C0350918D0320E038EF69E662
S11309C086E30E94E30180910C0190910D019093C4
S11309D00B0180930A0180918A0390918B03909379
S11309E0090180930801DF91CF911F910F91EF903E
S11309F008951F920F920FB60F921124EF920F9346
S1130A001F932F933F934F935F936F937F938F9392
S1130A109F93AF93BF93EF93FF9395B180E28927A0
S1130A2085B980918C0390918D03329B15C04CE461
S1130A306FE40E94890140918C0350918D0392E0F0
S1130A40E92E0FEF1FEF20E038EF69E681E80E94FE
S1130A50E3014FE46BE414C04FE46CE40E948901A9
S1130A6040918C0350918D0382E0E82E0FEF1FEF2D
S1130A7020E038EF69E681E80E94E3014BE46FE48B
S1130A8080918C0390918D030E94890140918C0385
S1130A9050918D0320E038EF69E68DE80E94E30170
S1130AA0FF91EF91BF91AF919F918F917F916F9142
S1130AB05F914F913F912F911F910F91EF900F9064
S1130AC00FBE0F901F901895CF93DF9300D01F9205
S1130AD0CDB7DEB70E9462030FEF1FEF2FE74EE999
S1130AE061E081E00E9437010FE110E024E24BE76E
S1130AF066E084E20E9437010FEF1FEF23E24AE72A
S1130B0067E085E20E9437010FE110E02AE746E43E
S1130B1066E686E00E9437010FEF1FEF29E745E400
S1130B2067E687E00E9437010FE110E02AE749E910
S1130B3066E689E50E9437010FEF1FEF29E748E9D0
S1130B4067E68AE50E9437018EE290E09A83898302
S1130B501B8272E0E72EF12C20E038EFAE014F5FEC
S1130B605F4F63E187E30E94500267E773E0CE01C1
S1130B7001960E94BC0A20E038EFAE014F5F5F4F40
S1130B8063E185E50E94500220E038EF4AE350E03B
S1130B9069E670E080E290E00E94850080E590E0E4
S1130BA00E949B0990938D0380938C034EE260E234
S1130BB00E94890140918C0350918D0320E038EF0D
S1130BC063E187E30E94E30142E460E280918C03E5
S1130BD090918D030E94890140918C0350918D0363
S1130BE020E038EF69E68BE50E94E30141E460E22E
S1130BF080918C0390918D030E94890140918C0314
S1130C0050918D0320E038EF69E687E60E94E30106
S1130C1044E560E280918C0390918D030E948901E8
S1130C2040918C0350918D0320E038EF69E683E70F
S1130C300E94E30180918C0390918D03329B10C03C
S1130C404CE460E20E94890140918C0350918D0331
S1130C5020E038EF69E681E80E94E3014FE413C025
S1130C604FE460E20E94890140918C0350918D030E
S1130C7062E0E62E0FEF1FEF20E038EF69E681E82F
S1130C800E94E3014BE460E280918C0390918D0318
S1130C900E94890140918C0350918D0320E038EF2C
S1130CA069E68DE80E94E3013C988AE0C82ED12CC5
S1130CB00DE713E091E9E92E93E0F92EAA24A39419
S1130CC0B12C33E6832E912C0E94B8028FE19EE46E
S1130CD00197F1F700C0000080918F038A3160F022
S1130CE080918F03883740F480919003893168F4B0
S1130CF0809190038E5F07C080919003882329F030
S1130D008091900381508093900380919003873069
S1130D1018F087B588BD0EC0809106019091070137
S1130D20019711F418BC06C087B590E0B6010E9483
S1130D30870968BD80917800909179009F938F9383
S1130D401F930F93FF92EF920E94C30A81E993E0ED
S1130D500E94CB0780917800909179000F900F90BA
S1130D600F900F900F900F90893E934028F41092AB
S1130D7007011092060104C0B0920701A092060177
S1130D8060918F0370E080E090E00E94780820E09A
S1130D9030E040E752E40E94D70720E030E040EB27
S1130DA051E40E9406090E944908CB01B4010E9443
S1130DB0730990931101809310012091880330915D
S1130DC089032F5F3F4F3093890320938803243F87
S1130DD0314099F420918A0330918B032F5F3F4F68
S1130DE030938B0320938A0301969093110180938F
S1130DF0100110928903109288030E9489030E94B3
S1130E00390462CF009741F0E9EFF0E03197F1F750
S1130E1000C000000197F6CF08958EBD0DB407FE03
S1130E20FDCF08952A989EBD0DB407FEFDCF8EBD5B
S1130E300DB407FEFDCF2A9A08959EBD0DB407FE9A
S1130E40FDCF8EBD0DB407FEFDCF0895CF92DF9286
S1130E50EF92FF920F931F93CF937C012A98C62F92
S1130E60CC2351F12898F70180810E940D07870156
S1130E700E5F1F4FF701E180289A6801FE2CFF20C6
S1130E8039F0F60181916F010E940D07FA94F7CFB2
S1130E90F801EE0DF11D7F018FEFE81AF80A808149
S1130EA0882341F08F3F11F090E002C084EF91E07D
S1130EB00E940207C150D4CF2A9ACF911F910F915B
S1130EC0FF90EF90DF90CF90089584B18F6284B942
S1130ED0569A84B5836884BD85B5846085BD8FE7E3
S1130EE087BD83ED90E30197F1F700C00000299AD4
S1130EF080E58CBD81E08DBD81EE94E00197F1F732
S1130F0000C0000066E182E191E00C942607CF93D3
S1130F10DF93CDB7DEB761970FB6F894DEBF0FBE8F
S1130F20CDBF9AE2998394E09A831B828C831D82BD
S1130F304E831F828BE2888799871A866B871C866B
S1130F402D871E868CE28F87188A85E0898B63E063
S1130F50CE0101960E94260761960FB6F894DEBF73
S1130F600FBECDBFDF91CF9108959093C5008093BC
S1130F70C40088E18093C100E2ECF0E086E0808365
S1130F8080818860808308959091C00095FFFCCF94
S1130F908093C6000895CF93DF93EC018991882351
S1130FA019F00E94C407FACFDF91CF9108950E94EF
S1130FB0EB070C94CC080E94C50858F00E94BE08A8
S1130FC040F029F45F3F29F00C94B50851110C94BA
S1130FD000090C94BB080E94DD0868F39923B1F35F
S1130FE0552391F3951B550BBB27AA27621773074B
S1130FF0840738F09F5F5F4F220F331F441FAA1FDF
S1131000A9F335D00E2E3AF0E0E832D0915050409A
S1131010E695001CCAF72BD0FE2F29D0660F771F48
S1131020881FBB1F261737074807AB07B0E809F02E
S1131030BB0B802DBF01FF2793585F4F3AF09E3FB3
S1131040510578F00C94B5080C9400095F3FE4F363
S1131050983ED4F3869577956795B795F7959F5FF6
S1131060C9F7880F911D9695879597F90895E1E042
S1131070660F771F881FBB1F621773078407BA07A1
S113108020F0621B730B840BBA0BEE1F88F7E095FC
S113109008950E94E50888F09F5798F0B92F992782
S11310A0B751B0F0E1F0660F771F881F991F1AF04F
S11310B0BA95C9F714C0B13091F00E94FF08B1E0AD
S11310C008950C94FF08672F782F8827B85F39F0AC
S11310D0B93FCCF3869577956795B395D9F73EF4E8
S11310E090958095709561957F4F8F4F9F4F089590
S11310F0E89409C097FB3EF49095809570956195AE
S11311007F4F8F4F9F4F9923A9F0F92F96E9BB2763
S11311109395F695879577956795B795F111F8CFDF
S1131120FAF4BB0F11F460FF1BC06F5F7F4F8F4F4A
S11311309F4F16C0882311F096E911C0772321F040
S11311409EE8872F762F05C0662371F096E8862FD8
S113115070E060E02AF09A95660F771F881FDAF72F
S1131160880F9695879597F9089597F99F6780E872
S113117070E060E008959FEF80EC089500240A94E5
S11311801616170618060906089500240A9412165E
S11311901306140605060895092E0394000C11F491
S11311A0882352F0BB0F40F4BF2B11F460FF04C03E
S11311B06F5F7F4F8F4F9F4F089557FD9058440F97
S11311C0551F59F05F3F71F04795880F97FB991FA2
S11311D061F09F3F79F0879508951216130614065F
S11311E0551FF2CF4695F1DF08C0161617061806EC
S11311F0991FF1CF86957105610508940895E894C7
S1131200BB2766277727CB0197F908950E94190910
S11312100C94CC080E94BE0838F00E94C50820F047
S1131220952311F00C94B5080C94BB0811240C946C
S113123000090E94DD0870F3959FC1F3950F50E0FB
S1131240551F629FF001729FBB27F00DB11D639F74
S1131250AA27F00DB11DAA1F649F6627B00DA11D1A
S1131260661F829F2227B00DA11D621F739FB00DC0
S1131270A11D621F839FA00D611D221F749F332730
S1131280A00D611D231F849F600D211D822F762FC9
S11312906A2F11249F5750409AF0F1F088234AF0A6
S11312A0EE0FFF1FBB1F661F771F881F9150504012
S11312B0A9F79E3F510580F00C94B5080C940009E1
S11312C05F3FE4F3983ED4F3869577956795B79599
S11312D0F795E7959F5FC1F7FE2B880F911D9695B3
S11312E0879597F90895AA1BBB1B51E107C0AA1F54
S11312F0BB1FA617B70710F0A61BB70B881F991FB3
S11313005A95A9F780959095BC01CD01089597FB56
S1131310072E16F4009407D077FD09D00E947309B4
S113132007FC05D03EF4909581959F4F08957095E4
S113133061957F4F08950F931F93CF93DF9382306E
S1131340910510F482E090E0E091AC03F091AD03DC
S113135020E030E0A0E0B0E0309719F14081518105
S11313600281138148175907C8F08417950769F457
S1131370109731F012960C93129713961C9327C072
S11313800093AC031093AD0322C02115310519F06D
S11313904217530718F49A01BD01EF01DF01F80168
S11313A0DBCF21153105F9F0281B390B2430310529
S11313B080F48A819B816115710521F0FB0193837F
S11313C0828304C09093AD038093AC03FE013296F4
S11313D044C0FE01E20FF31F81939193225031091F
S11313E0398328833AC02091AA033091AB03232B7D
S11313F041F420910201309103013093AB03209317
S1131400AA0320910001309101012115310541F415
S11314102DB73EB74091040150910501241B350BB3
S1131420E091AA03F091AB03E217F307A0F42E1B9B
S11314303F0B2817390778F0AC014E5F5F4F241734
S1131440350748F04E0F5F1F5093AB034093AA0338
S11314508193919302C0E0E0F0E0CF01DF91CF915E
S11314601F910F910895CF93DF93009709F481C0E2
S1131470FC01329713821282A091AC03B091AD03A8
S1131480109781F420813181820F931F2091AA0348
S11314903091AB032817390751F5F093AB03E09370
S11314A0AA0367C0ED0120E030E0CE17DF0740F467
S11314B04A815B819E0141155105F1F0EA01F5CFA6
S11314C0D383C28340815181840F951FC817D907E4
S11314D059F488819981840F951F029691838083A2
S11314E08A819B81938382832115310529F4F093AA
S11314F0AD03E093AC033DC0E901FB83EA8349916A
S11315005991C40FD51FEC17FD0761F480819181B7
S1131510840F951F0296E9019983888382819381C0
S11315209B838A83E0E0F0E012968D919C9113975F
S1131530009719F0FD01DC01F7CF8D919C91119773
S11315409D012E5F3F4F820F931F2091AA0330917C
S1131550AB032817390769F4309729F41092AD03C7
S11315601092AC0302C013821282B093AB03A09317
S1131570AA03DF91CF910895FB01DC0101900D9244
S11315800020E1F70895AEE0B0E0E9ECFAE00C9455
S1131590840D0D891E8986E08C831A8309838FEF5D
S11315A09FE79E838D83AE01475E5F4F6F89788D81
S11315B0CE0101960E94E50AEF81F885E00FF11F44
S11315C010822E96E4E00C94A00DABE0B0E0EBEEBC
S11315D0FAE00C94760D6C017B018A01FC01178200
S11315E01682838181FFCCC1CE0101963C01F601B4
S11315F09381F70193FD859193FF81917F01882366
S113160009F4BAC1853239F493FD859193FF819130
S11316107F01853229F4B60190E00E94DC0CE7CF0B
S1131620912C212C312CFFE1F315D8F08B3279F079
S113163038F4803279F08332A1F4232D20611DC067
S11316408D3261F0803369F4232D216016C0832D1F
S11316508260382EE32DE4603E2E2AC0F32DF8601C
S11316601DC037FC2DC020ED280F2A3040F08E32EB
S1131670B9F436FC81C1232D2064322E19C036FE04
S113168006C08AE0989E200D1124922E11C0EAE033
S11316902E9E200D1124222EF32DF0623F2E08C021
S11316A08C3621F4832D8068382E02C0883641F4AC
S11316B0F70193FD859193FF81917F018111B3CF50
S11316C0982F9F7D9554933028F40C5F1F4F9FE310
S11316D099830DC0833631F0833771F0833509F077
S11316E059C021C0F801808189830E5F1F4F88246F
S11316F08394912C530113C02801F2E04F0E511C26
S1131700F801A080B18036FE03C0692D70E002C0EC
S11317106FEF7FEFC5010E94D10C4C018201F32DC4
S1131720FF773F2E16C0280122E0420E511CF8011B
S1131730A080B18036FE03C0692D70E002C06FEF57
S11317407FEFC5010E94C60C4C01F32DF0683F2EBB
S1131750820133FC1BC0822D90E088169906B0F4F8
S1131760B60180E290E00E94DC0C2A94F4CFF501EB
S113177037FC859137FE81915F01B60190E00E94AC
S1131780DC0C21102A9421E0821A9108811491041E
S113179071F7E8C0843611F0893641F5F80137FE57
S11317A007C060817181828193810C5F1F4F08C0E3
S11317B060817181072E000C880B990B0E5F1F4FFF
S11317C0F32DFF763F2E97FF09C090958095709575
S11317D061957F4F8F4F9F4FF0683F2E2AE030E096
S11317E0A3010E94180D882E861845C0853731F450
S11317F0232D2F7EB22E2AE030E025C0932D997F31
S1131800B92E8F36C1F018F4883579F0B5C0803719
S113181019F0883721F0B0C0E92FE061BE2EB4FE84
S11318200DC0FB2DF460BF2E09C034FE0AC0292F61
S11318302660B22E06C028E030E005C020E130E08A
S113184002C020E132E0F801B7FE07C06081718177
S1131850828193810C5F1F4F06C06081718180E09B
S113186090E00E5F1F4FA3010E94180D882E86186A
S1131870FB2DFF773F2E36FE0DC0232D2E7FA22E8B
S1131880891458F434FE0BC032FC09C0832D8E7EBB
S1131890A82E05C0B82CA32C03C0B82C01C0B92CA9
S11318A0A4FE0FC0FE01E80DF11D8081803321F4F8
S11318B09A2D997EA92E09C0A2FE06C0B394B394B2
S11318C004C08A2D867809F0B394A3FC11C0A0FE4D
S11318D006C0B21488F4280C922C9B180EC0B214C3
S11318E060F4B60180E290E00E94DC0CB394F7CF80
S11318F0B21418F42B1802C0982C212CA4FE10C08A
S1131900B60180E390E00E94DC0CA2FE17C0A1FCAB
S113191003C088E790E002C088E590E0B6010CC0FF
S11319208A2D867859F0A1FE02C08BE201C080E2C4
S1131930A7FC8DE2B60190E00E94DC0C891438F417
S1131940B60180E390E00E94DC0C9A94F7CF8A946D
S1131950F301E80DF11D8081B60190E00E94DC0CDA
S11319608110F5CF222009F442CEB60180E290E046
S11319700E94DC0C2A94F6CFF6018681978102C07E
S11319808FEF9FEF2B96E2E10C94920DFC010590F2
S1131990615070400110D8F7809590958E0F9F1F6D
S11319A00895FC016150704001900110D8F78095B2
S11319B090958E0F9F1F08950F931F93CF93DF93DE
S11319C0FB01238121FD03C08FEF9FEF2CC022FF79
S11319D016C046815781248135814217530744F448
S11319E0A081B1819D012F5F3F4F318320838C9370
S11319F0268137812F5F3F4F3783268314C08B01A5
S1131A00EC01FB010084F185E02D0995892BE1F6B9
S1131A10D80116968D919C911797019617969C93D1
S1131A208E931697CE01DF91CF911F910F91089558
S1131A30FA01AA27283051F1203181F1E8946F93FB
S1131A406E7F6E5F7F4F8F4F9F4FAF4FB1E03ED0A1
S1131A50B4E03CD0670F781F891F9A1FA11D680F3F
S1131A60791F8A1F911DA11D6A0F711D811D911D72
S1131A70A11D20D009F468943F912AE0269F1124E7
S1131A803019305D3193DEF6CF010895462F47704B
S1131A90405D4193B3E00FD0C9F7F6CF462F4F70A6
S1131AA0405D4A3318F0495D31FD4052419302D004
S1131AB0A9F7EACFB4E0A6959795879577956795AA
S1131AC0BA95C9F700976105710508959B01AC01AA
S1131AD00A2E06945795479537952795BA95C9F7D1
S1131AE0620F731F841F951FA01D08952F923F92AC
S1131AF04F925F926F927F928F929F92AF92BF921A
S1131B00CF92DF92EF92FF920F931F93CF93DF93C5
S1131B10CDB7DEB7CA1BDB0B0FB6F894DEBF0FBE22
S1131B20CDBF09942A88398848885F846E847D846F
S1131B308C849B84AA84B984C884DF80EE80FD8071
S1131B400C811B81AA81B981CE0FD11D0FB6F894E7
S1111B50DEBF0FBECDBFED010895F894FFCFA8
S1131B5E0000AE0320000100FFFFFFFF0700FFFFA0
S1131B6E50000100961100FFB103012C2D00B203A9
S1131B7E012C2D00B306012C2D012C2D00B40107D0
S1131B8E00C0030A028405C101C505C2020A00058C
S1131B9EC3028A2A05C4028AEE05C5010E0020007E
S1131BAE003601C8003A0105002A040000007F0037
S1131BBE2B040000009F00E010021C07123732298C
S1131BCE2D29252B390001031000E110031D0706F2
S1131BDE2E2C292D2E2E373F000002100013000A42
S1131BEE2900643601600A000000000000005F0056
S1131BFE000007000700147F147F14242A7F2A1282
S1131C0E2313086462364955225000050300000070
S1131C1E1C2241000041221C0014083E081408082E
S1131C2E3E080800503000000808080808006060EC
S1131C3E000020100804023E5149453E00427F40F8
S1131C4E0042615149462141454B311814127F100F
S1131C5E27454545393C4A49493001710905033642
S1131C6E49494936064949291E00363600000056B0
S1131C7E36000008142241001414141414004122D6
S1131C8E14080201510906324979413E7E1111119F
S1131C9E7E7F494949363E414141227F4141221CC2
S1131CAE7F494949417F090909013E4149497A7FE2
S1131CBE0808087F00417F41002040413F017F0812
S1131CCE1422417F404040407F020C027F7F040873
S1131CDE107F3E4141413E7F090909063E41512193
S1131CEE5E7F09192946464949493101017F01019F
S1131CFE3F4040403F1F2040201F3F4038403F633D
S1131D0E1408146307087008076151494543007F9E
S1131D1E41410002040810200041417F00040201E9
S1131D2E0204404040404000010204002054545438
S1131D3E787F484444383844444420384444487FE7
S1131D4E3854545418087E0901020C5252523E7FE4
S1131D5E0804047800447D40002040443D007F1078
S1131D6E28440000417F40007C041804787C080459
S1131D7E047838444444387C141414080814141891
S1131D8E7C7C080404084854545420043F444020E6
S1131D9E3C4040207C1C2040201C3C4030403C44B5
S1131DAE281028440C5050503C4464544C440008B1
S1131DBE36410000007F000000413608001008087C
S1131DCE100800060909066D70682F73004144431C
S10B1DDE3A200D25750A0000EE
S9030000FC
